:020000040000FA
:10000000008D002041750000F5E801002575000015
:100010002575000025750000257500000000000012
:1000200000000000000000000000000061770000F8
:100030002575000000000000F57600002575000021
:10004000997A0000B51B0100997A0000997A0000A6
:10005000997A0000997A0000997A0000997A000054
:10006000997A0000997A0000997A0000997A000044
:10007000997A0000997A0000997A0000997A000034
:10008000997A0000997A0000997A0000997A000024
:10009000997A0000997A0000997A0000997A000014
:1000A000997A0000997A0000997A0000997A000004
:1000B000997A0000997A0000997A0000997A0000F4
:1000C000997A0000997A0000997A0000997A0000E4
:1000D000997A0000997A0000997A0000997A0000D4
:1000E000997A0000997A0000997A0000997A0000C4
:1000F000997A0000997A0000997A0000997A0000B4
:1001000001F0FF01102A2BDB10F0070F08D010F8C8
:10011000013B013A8B422DD010F0070F42B3F6D1CC
:10012000F0B441EA012141EA014122F007047FF0E5
:1001300000070023F0E80256083C85EA010586EA3C
:10014000010685FA47F5A3FA87F586FA47F6A5FA78
:1001500087F68EB9EED1F0BC01F0FF0102F0070284
:1001600032B110F8013B013A83EA010313B1F8D12F
:100170000020704701387047002D06BF3546033810
:10018000073815F0010F07D1013015F4807F02BF49
:10019000013015F4C03F0130F0BC0138704700BF9A
:1001A00081F0004102E000BF83F0004330B54FEA28
:1001B00041044FEA430594EA050F08BF90EA020F95
:1001C0001FBF54EA000C55EA020C7FEA645C7FEA28
:1001D000655C00F0E2804FEA5454D4EB5555B8BF4B
:1001E0006D420CDD2C4480EA020281EA030382EABC
:1001F000000083EA010180EA020281EA0303362D4E
:1002000088BF30BD11F0004F4FEA01314FF4801C20
:100210004CEA113102D0404261EB410113F0004F32
:100220004FEA03334CEA133302D0524263EB4303E9
:1002300094EA050F00F0A780A4F10104D5F1200E87
:100240000DDB02FA0EFC22FA05F2801841F10001E2
:1002500003FA0EF2801843FA05F359410EE0A5F1B6
:1002600020050EF1200E012A03FA0EFC28BF4CF0E7
:10027000020C43FA05F3C01851EBE37101F000459D
:1002800007D54FF0000EDCF1000C7EEB00006EEBAA
:100290000101B1F5801F1BD3B1F5001F0CD3490834
:1002A0005FEA30004FEA3C0C04F101044FEA44528B
:1002B00012F5800F80F09A80BCF1004F08BF5FEA12
:1002C000500C50F1000041EB045141EA050130BDF2
:1002D0005FEA4C0C404141EB0101013C28BFB1F504
:1002E000801FE9D291F0000F04BF01460020B1FA4F
:1002F00081F308BF2033A3F10B03B3F120020CDA22
:100300000C3208DD02F1140CC2F10C0201FA0CF0FF
:1003100021FA02F10CE002F11402D8BFC2F1200C64
:1003200001FA02F120FA0CFCDCBF41EA0C0190401A
:10033000E41AA2BF01EB0451294330BD6FEA040463
:100340001F3C1CDA0C340EDC04F11404C4F120024E
:1003500020FA04F001FA02F340EA030021FA04F360
:1003600045EA030130BDC4F10C04C4F1200220FAB7
:1003700002F001FA04F340EA0300294630BD21FAF5
:1003800004F0294630BD94F0000F83F4801306BFBB
:1003900081F480110134013D4EE77FEA645C18BFAF
:1003A0007FEA655C29D094EA050F08BF90EA020F46
:1003B00005D054EA000C04BF1946104630BD91EA3E
:1003C000030F1EBF0021002030BD5FEA545C05D141
:1003D0004000494128BF41F0004130BD14F5800480
:1003E0003CBF01F5801130BD01F0004545F0FE41F4
:1003F00041F470014FF0000030BD7FEA645C1ABF29
:10040000194610467FEA655C1CBF0B46024650EA5F
:10041000013406BF52EA033591EA030F41F400218B
:1004200030BD00BF90F0000F04BF0021704730B511
:100430004FF4806404F132044FF000054FF00001E6
:1004400050E700BF90F0000F04BF0021704730B5A7
:100450004FF4806404F1320410F0004548BF40427C
:100460004FF000013EE700BF42004FEAE2014FEAD1
:1004700031014FEA02701FBF12F07F4393F07F4FAC
:1004800081F06051704732F07F4208BF704793F0AF
:100490007F4F04BF41F40021704730B54FF46074C2
:1004A00001F0004521F000411CE700BF50EA0102C5
:1004B00008BF704730B54FF000050AE050EA01026E
:1004C00008BF704730B511F0004502D5404261EBDE
:1004D00041014FF4806404F132045FEA915C3FF41F
:1004E000D8AE4FF003025FEADC0C18BF03325FEABC
:1004F000DC0C18BF033202EBDC02C2F1200300FA6D
:1005000003FC20FA02F001FA03FE40EA0E0021FA91
:1005100002F11444BDE600BF70B54FF0FF0C4CF47F
:10052000E06C1CEA11541DBF1CEA135594EA0C0F31
:1005300095EA0C0F00F0DEF82C4481EA030621EA6C
:100540004C5123EA4C5350EA013518BF52EA0335A7
:1005500041F4801143F4801338D0A0FB02CE4FF059
:100560000005E1FB02E506F00042E0FB03E54FF089
:100570000006E1FB03569CF0000F18BF4EF0010E81
:10058000A4F1FF04B6F5007F64F5407404D25FEA7D
:100590004E0E6D4146EB060642EAC62141EA555130
:1005A0004FEAC52040EA5E504FEACE2EB4F1FD0C72
:1005B00088BFBCF5E06F1ED8BEF1004F08BF5FEAF0
:1005C000500E50F1000041EB045170BD06F00046A2
:1005D00046EA010140EA020081EA0301B4EB5C044F
:1005E000C2BFD4EB0C0541EA045170BD41F4801147
:1005F0004FF0000E013C00F3AB8014F1360FDEBF6C
:10060000002001F0004170BDC4F10004203C35DA47
:100610000C341BDC04F11404C4F1200500FA05F3CA
:1006200020FA04F001FA05F240EA020001F000426B
:1006300021F0004110EBD37021FA04F642EB0601E1
:100640005EEA430E08BF20EAD37070BDC4F10C040B
:10065000C4F1200500FA04F320FA05F001FA04F2CF
:1006600040EA020001F0004110EBD37041F10001BB
:100670005EEA430E08BF20EAD37070BDC4F12005C6
:1006800000FA05F24EEA020E20FA04F301FA05F22E
:1006900043EA020321FA04F001F0004121FA04F2D6
:1006A00020EA020000EBD3705EEA430E08BF20EAA6
:1006B000D37070BD94F0000F0FD101F000464000E0
:1006C00041EB010111F4801F08BF013CF7D041EA62
:1006D000060195F0000F18BF704703F00046520066
:1006E00043EB030313F4801F08BF013DF7D043EA37
:1006F0000603704794EA0C0F0CEA135518BF95EAED
:100700000C0F0CD050EA410618BF52EA4306D1D173
:1007100081EA030101F000414FF0000070BD50EA92
:10072000410606BF1046194652EA430619D094EA1C
:100730000C0F02D150EA013613D195EA0C0F05D106
:1007400052EA03361CBF104619460AD181EA03015A
:1007500001F0004141F0FE4141F470014FF0000012
:1007600070BD41F0FE4141F4780170BD70B54FF0AD
:10077000FF0C4CF4E06C1CEA11541DBF1CEA13552D
:1007800094EA0C0F95EA0C0F00F0A7F8A4EB05040F
:1007900081EA030E52EA03354FEA013100F0888006
:1007A0004FEA03334FF0805545EA131343EA1263CF
:1007B0004FEA022245EA111545EA10654FEA002684
:1007C0000EF000419D4208BF964244F1FD0404F53D
:1007D000407402D25B084FEA3202B61A65EB030599
:1007E0005B084FEA32024FF480104FF4002CB6EB56
:1007F000020E75EB030E22BFB61A754640EA0C00D6
:100800005B084FEA3202B6EB020E75EB030E22BF15
:10081000B61A754640EA5C005B084FEA3202B6EB56
:10082000020E75EB030E22BFB61A754640EA9C0015
:100830005B084FEA3202B6EB020E75EB030E22BFE5
:10084000B61A754640EADC0055EA060E18D04FEAA3
:10085000051545EA16754FEA06164FEAC30343EA43
:1008600052734FEAC2025FEA1C1CC0D111F4801F10
:100870000BD141EA00014FF000004FF0004CB6E709
:1008800011F4801F04BF01430020B4F1FD0C88BFA8
:10089000BCF5E06F3FF6AFAEB5EB030C04BFB6EBB3
:1008A000020C5FEA500C50F1000041EB045170BDA6
:1008B0000EF0004E4EEA113114EB5C04C2BFD4EBD3
:1008C0000C0541EA045170BD41F480114FF0000E57
:1008D000013C90E645EA060E8DE60CEA135594EAD3
:1008E0000C0F08BF95EA0C0F3FF43BAF94EA0C0FD6
:1008F0000AD150EA01347FF434AF95EA0C0F7FF44B
:1009000025AF104619462CE795EA0C0F06D152EA9E
:1009100003353FF4FDAE1046194622E750EA410682
:1009200018BF52EA43067FF4C5AE50EA41047FF493
:100930000DAF52EA43057FF4EBAE12E74FF0FF3CF8
:1009400006E000BF4FF0010C02E000BF4FF0010CC9
:100950004DF804CD4FEA410C7FEA6C5C4FEA430C42
:1009600018BF7FEA6C5C1BD001B050EA410C0CBF91
:1009700052EA430C91EA030F02BF90EA020F0020F3
:10098000704710F1000F91EA030F58BF994208BF5A
:1009900090422CBFD8176FEAE37040F00100704717
:1009A0004FEA410C7FEA6C5C02D150EA013C07D16E
:1009B0004FEA430C7FEA6C5CD6D152EA033CD3D0B9
:1009C0005DF8040B704700BF8446104662468C46B3
:1009D0001946634600E000BF01B5FFF7B7FF0028E6
:1009E00048BF10F1000F01BD4DF808EDFFF7F4FF0F
:1009F0000CBF012000205DF808FB00BF4DF808ED9A
:100A0000FFF7EAFF34BF012000205DF808FB00BFBC
:100A10004DF808EDFFF7E0FF94BF012000205DF8DE
:100A200008FB00BF4DF808EDFFF7CEFF94BF012093
:100A300000205DF808FB00BF4DF808EDFFF7C4FF8C
:100A400034BF012000205DF808FB00BF4FEA410CD5
:100A50007FEA6C5C02D150EA013C0AD14FEA430CB8
:100A60007FEA6C5C02D152EA033C02D14FF00000F5
:100A700070474FF0010070474FEA410212F5001233
:100A800015D211D56FF47873B3EB625212D94FEAD5
:100A9000C12343F0004343EA505311F0004F23FABF
:100AA00002F018BF404270474FF00000704750EA14
:100AB000013005D111F0004008BF6FF000407047D1
:100AC0004FF00000704700BF53B94AB9002908BF72
:100AD00000281CBF4FF0FF314FF0FF3000F00CB882
:100AE000ADF1080C6DE904CE00F01AF8DDF804E071
:100AF000DDE9022304B07047704700BF10F8012BF6
:100B000011F8013B012A28BF9A42F7D0D01A70474A
:100B1000034613F8012B002AFBD1181A013870473D
:100B20002DE9F04786468C460846089E15467446D1
:100B30001946002B40F0C2808542B2FA82F245D9B4
:100B40004AB1C2F1200300FA02FC2EFA03F39540E9
:100B500043EA0C0C94404FEA154EA8B2BCFBFEF8D9
:100B6000230C0EFB18CC08FB00F943EA0C43994513
:100B700028D9EB1808F1FF3704D2994502D9A8F11A
:100B800002072B44A3EB0903A4B2B3FBFEFC0EFB4C
:100B90001C330CFB00F044EA0344A04214D92C1986
:100BA0000CF1FF3304D2A04202D9ACF102032C4471
:100BB000241A43EA07401EB1D44000233460736016
:100BC000BDE8F0874746DDE76346F1E792BB431B8C
:100BD00001214FEA154EAFB2B3FBFEFC200C0EFB19
:100BE0001C330CFB07F840EA0343984562D9EB1825
:100BF0000CF1FF3004D2984502D9ACF102002B442D
:100C0000A3EB0803A4B2B3FBFEFC0EFB1C330CFBEE
:100C100007F744EA0344A7424ED92C190CF1FF33DD
:100C200004D2A74202D9ACF102032C44E41B43EAEC
:100C30000040C0E7C2F1200320FA03F19540904044
:100C40002EFA03F303434FEA154EAFB2B1FBFEFC9D
:100C50000EFB1C10190C0CFB07F841EA00418845FB
:100C600004FA02F422D969180CF1FF3004D2884545
:100C700002D9ACF102002944A1EB08019BB2B1FBFF
:100C8000FEFC0EFB1C110CFB07F743EA01439F42DD
:100C90000ED9EB180CF1FF3104D29F4202D9ACF10E
:100CA00002012B44DB1B41EA004192E76046E3E787
:100CB0006146F7E76046A3E76346B7E7834206D994
:100CC00016B9002108467BE7C6E900E0F9E7B3FA68
:100CD00083F78FB9834201D3724508D8BEEB020473
:100CE00060EB030301209C461EB9002168E73846EB
:100CF000FAE7C6E9004CF8E7C7F1200CBB4022FA3E
:100D00000CF41C432EFA0CF120FA0CF3B84001430A
:100D10004FEA14490EFA07F5B3FBF9F81FFA84FEFF
:100D200009FB18300B0C08FB0EFA43EA00439A4506
:100D300002FA07F240D9E31808F1FF3004D29A45CD
:100D400002D9A8F102002344A3EB0A0389B2B3FB42
:100D5000F9F809FB183308FB0EFE41EA03418E4502
:100D60002CD9611808F1FF3304D28E4502D9A8F1BD
:100D70000203214443EA0040A0FB0298A1EB0E01CC
:100D80004145CE46434602D306D14D4504D2B9EB88
:100D9000020E68EB04030138002EA6D0B5EB0E025C
:100DA00061EB030101FA0CFC22FA07F34CEA03039E
:100DB000F940C6E9003198E74046C5E74346D9E720
:100DC0002DE9F04F9FB08246039117461C4600253F
:100DD000387810B9284600F0A6BD252809D0039917
:100DE000D0470028C0F29F857B1C01350593059FE5
:100DF000EEE71822002110A81EF0DBFD7B78252BE2
:100E000000F0BC800023791C98469E469C461846FC
:100E10000E4611F8012B2B2A00F0E38000F2DA8055
:100E2000202A00F0E180232A00F0E1802BB19DF818
:100E3000483043F040038DF84830B8F1000F05D03A
:100E40009DF8483043F020038DF84830BEF1000F84
:100E500005D09DF8483043F010038DF84830BCF1C0
:100E6000000F05D09DF8483043F008038DF8483056
:100E700028B19DF8483043F004038DF848309DF8C0
:100E8000483003F04401442903D16FF386138DF8F1
:100E900048309DF848300E9643F080032A2A8DF89A
:100EA000483040F0A9809DF8493043F001038DF8A7
:100EB0004930731C1A782E2A9DF849200CBF012155
:100EC000002161F341028DF849200CD15A1C0E9289
:100ED0005A782A2A40F0A0809DF8492042F0040266
:100EE0008DF8492002331A786C2A00F0C18000F294
:100EF000A380682A00F0A9806A2A00F0C2804C2AE8
:100F000000F0C78013F8012B0593782A8DF84B2049
:100F100000F209816D2A00F2C980692A00F203817A
:100F2000572A00F2E280412A04D0A2F14503022BA5
:100F300000F2F9809DF84A3002F0DF020421A2F1AC
:100F4000410961F30203D9F100029DF849108DF8BF
:100F50004A3042EB090262F3C7110A068DF84910C4
:100F6000CBB200F11F8103F07802182A40F009810A
:100F70006FF3C6038DF849300023F8E08DF84B304D
:100F8000BB1C05939DF849309DF84A20DE0702F00E
:100F9000070040F1098154F8041B0491002908DA84
:100FA0009DF8481041F004018DF848100499494219
:100FB0000491590740F1008154F8046B002E80F22F
:100FC000FF809DF849306FF341038DF849304FF0B1
:100FD000FF36F5E02D2A0DD0302A7FF427AF01230C
:100FE00016E74FF0010C13E74FF0010E10E74FF03A
:100FF00001080DE701200BE70EA804F059F80E9B3D
:10100000B3423FF457AF9DF848201390C00F60F3F0
:1010100041028DF848204DE70EA804F049F89DF8EC
:1010200048301490C3F3400242EAD07262F34103A5
:101030008DF848300E9B56E7742A26D07A2A7FF422
:1010400061AF9DF8492006210CE05A78682A9DF886
:10105000492006D1012161F3C6028DF849200233EF
:1010600050E7022161F3C6028DF84920013349E7B8
:101070005A786C2A9DF8492001D10421EBE703211D
:10108000F0E79DF849200521ECE79DF8492007216C
:10109000E8E7BDF8482022F4F04222F0020242F4D0
:1010A000804242F00202ADF84820DFE76E3AD3B248
:1010B00001229A4040F282431A429DF8493039D1C8
:1010C00012F0240F61D1D1072DD59DF84A2003F0ED
:1010D0007803A3F14008032161F30202D8F1000371
:1010E0008DF84A2043EB080341E0A2F15801C9B250
:1010F000012000FA01F111F4624F7FF41BAF40F6BA
:10110000010319429DF849301AD111F4043F0AD065
:101110009DF84A2060F3020203F07803402B8DF81B
:101120004A207FF429AF9DF8483043F001038DF841
:10113000483021E79DF84A20022161F30202EBE7E3
:101140009DF84A10022003F0780360F30201402B5F
:101150008DF84A1002BF9DF8481041F001018DF84A
:101160004810632A7FF408AF003B18BF01239DF8A5
:101170004820C2F340010B4363F341028DF848203D
:1011800000E713F0380FCED1F6E69DF84A20032190
:1011900013F0780F61F302028DF84A2014BF012387
:1011A0000023E4E70123E2E79DF948100029B4BFDA
:1011B00013994FF0FF31FBE69E077FF508AF149EB1
:1011C00000230428CDE913339DF8493007D199074E
:1011D00005D49DF949100029ACBF06260D2602F062
:1011E0000702012AC3F3C30332D1DA1E042A04D84A
:1011F000DFE802F02045452020002268012B4FEA5D
:10120000E271CDE910211BD19DF94020D117CDE924
:10121000102104349DF84820069292074FD0059B78
:1012200003993A4650461DF041F80028C0F27B83EE
:101230000544DCE554F8042BD117CDE91021E9E78A
:10124000022BE6D111B242F3C032CDE91012E0E731
:10125000022A24D1DA1E042A04D8DFE802F018108A
:1012600010181800012B54F8042B4FF0000114D073
:10127000022BCDE91021CDD192B21092CAE70734EA
:1012800024F00704F4E80201CDE91001C2E754F8A4
:10129000042B109200221192BCE7D2B2CDE7042AAF
:1012A00008D1073424F00704D4E900010834CDE95B
:1012B0001001AFE7032AADD154F8042BDDE79DF808
:1012C0004B80B8F1780F3FF692ADB8F1570F5CD86C
:1012D000B8F1250F00F0A480B8F1240F7FF687AD98
:1012E000B8F1410F04D0A8F14503022B3FF67FADC2
:1012F000DDE91023002BC0F24D810699080700F1AB
:101300004C81C1F300194FEA4919C3F30A51C3F3E1
:101310001303002940F0448152EA030014BF4FF048
:10132000010C4FF0000CD80240EA5250D702CDE930
:101330000C70B8F1460F47EA010740EAE17008BFB8
:101340004FF06608384300F0B881BCF1000F10D0B0
:101350001B0343EA125317033A4618464FF0000C9A
:10136000002880F25681BCF1000F40F05981CDE990
:101370000C730D9B43F00043A1F2FE3B0D93002143
:10138000DDE90C230F46052060E1A8F15802202A70
:101390003FF62DAD01A151F822F000BF6715000006
:1013A000EF0D0000EF0D0000EF0D0000EF0D00004D
:1013B000EF0D0000EF0D0000EF0D0000EF0D00003D
:1013C000F1120000EF0D00001315000027150000BA
:1013D000F1120000F1120000F1120000EF0D000008
:1013E00027150000EF0D0000EF0D0000EF0D0000CD
:1013F000EF0D00006D15000067150000B714000028
:10140000EF0D0000EF0D000031140000EF0D0000A3
:1014100067150000EF0D0000EF0D000067150000DC
:1014200003994046D0470028C0F27D820135DEE4B2
:10143000002E109F3BDB314638461EF00DFC002F7E
:101440003FF4D5AC3E18F31B4FF000099DF84A203D
:1014500012F01001069100F05B82023312F040029C
:10146000DDF84C80089218BF149ACDF81C804344D4
:1014700018BF9B18049A002A40F36582D31A9DF87E
:10148000482004935007C2F3800B00F15C825106A0
:1014900040F14C82B9F1000F07D003994846D0477C
:1014A0000028C0F240820135D94630223FE238465A
:1014B000FFF72EFBC6E71098002800F024820DF1FC
:1014C0007503009312AA17AB002103F007FEBDF8C5
:1014D0004A3003F0EF0343F4F04343F010030746B0
:1014E000ADF84A304FF00009002E0CDB9DF8482083
:1014F0000DF17503DB1B6FF386129E428DF84820B9
:1015000001D9F31A1393002F3FF471AC0DF1750656
:101510006DE0109B8DF85C304FF000090DF15D0619
:1015200017AF012392E7069B1F0758BFC3F30019AB
:10153000DDE9102354BF4FEA49194FF02B09002B66
:1015400006DA524263EB4303CDE910234FF02D0935
:101550000DF175030093DDE9100117AB12AA03F03A
:10156000BDFD0746C0E74FF00009F1E7109A072BD1
:101570003FF63DACDFE803F00C04060C08080C0C49
:10158000157034E4158032E4EB17C2E900532EE401
:1015900015602CE44FF02D09B7E64FF02B09B4E6A7
:1015A00040F2FF70814231D108F10108A2495FFA8F
:1015B00088F8134311F8081001F003011ED1012926
:1015C0000BBF492369234E216E210CBF46226622A0
:1015D0008DF85C309DF848308DF85D106FF3861300
:1015E0008DF85E208DF848300DF15F0617AFF31BC4
:1015F000B9F1000F3FF42AAF013327E7012915BFE6
:101600006E234E23612141211A46E1E74FF0000C81
:1016100089E6921801F1FF3140414FF0010C9FE63D
:10162000CDE90C20A5E6520842EAC3725B08B3F18B
:10163000333F59460BF1010BF5D200FB03FCA2FB33
:10164000002301F1020B6344013F01211BF1020F52
:10165000E9DB09B1CDE90C23BBF1000FDDE90C3268
:101660002EDCCBF10401A1F120000BF11C0B02FADE
:101670000BFB22FA00F0CA40CB40079208F0DF02D1
:1016800043EA0B03472A43EA00037DD1F91C01DB3F
:10169000BE422BDAA8F10208002E5FFA88F87CDD42
:1016A0009DF84820920606F1FF3676D4B6F1000B7D
:1016B00018BF4FF0010B721C27E04FF0000B5EE6E5
:1016C000023342F100020CA8CDE90C321CF0BFFD40
:1016D000DDE90C320BF1FF3B0137DB185241002AE8
:1016E0000BF1FF3BF9DACDE90C32B5E79DF8482064
:1016F0009006A6EB07064DD4B6F1000B18BF4FF0CD
:10170000010BF2194FF066084AD4102AA8BF102224
:101710009FED477B8DED0E7B10200B90DDE90E01D8
:10172000002A3FD1079A1B1842EB0101B1F1805FFB
:1017300047D2CDE90C31069BB8F1660F03F02002C9
:1017400040F0C180002F47DC30238DF85C30002A48
:1017500074D1002E40F3BA812E238DF85D3087B10D
:101760007B42B342A8BF33469DF84A201393002B17
:10177000A6EB0306D4BF0023012363F345128DF8C3
:101780004A200DF15E0340E0B8F1660F4FF0000B08
:10179000B7D090E74FF0000BB3E74FF0000B8AE7AC
:1017A0000022B5E7400840EAC1704908CDE90E01C2
:1017B0000EA8CDE908231CF04AFD089A099B013ABE
:1017C000ACE75B0843EAC1730CA84908CDE90C31CA
:1017D00001371CF03CFDAEE717AB0B9900290BDD80
:1017E0000BA90CA8CDE906321CF049FD069B079A0F
:1017F00003F8010B013FF0D11397AAB9002E40F373
:1018000063812E2103F8011B0027002E1FDD0B9A98
:10181000002A1CDD0BA90CA806931CF030FD069BCA
:10182000013E03F8010BF0E72E2203F8012BEBE752
:101830000000000000000008235B02002E238DF84A
:101840005D30002F9DD0002E8ADC0DF15E03BBF1D0
:10185000000F4CD114961E4608F0DF03452B21D112
:10186000002FBABF7F422D232B23632FC8BF6422D2
:101870007370C2BFB7FBF2F303F1300102FB1377C1
:101880004FF00A0286F80080CABFB17002360336F4
:10189000B7FBF2F303F1300102FB13733033317005
:1018A00073700236139B002B2BDC149B002BD4BFD0
:1018B000002301239DF84A2063F3861200238DF84C
:1018C0004A20337092E60BA90CA806921CF0D7FCB4
:1018D000069A8DF85C00302818BF07F1FF3712B95F
:1018E000002E40F3F3802E238DF85D3049E71E462D
:1018F000013B16F8012C302AF9D02E2A08BF1E46CB
:10190000AAE70123D6E7734E8146771F05239DE59D
:10191000110748BF0133A1E5104609920399D0474A
:101920000028099A05DA1FB0BDE8F08F2022DDF803
:1019300010B0594600290BF1FF3BEDDC049BCDF8BC
:1019400010B02B445D1AB9F1000F05D00399484639
:10195000D0470028E7DB0135089B002B79D09DF9A3
:101960004930002B29DBDFF870913B46187819F8D5
:10197000002052079B4603F101033FD49DF84A30F3
:10198000EF1B98065F4407D44246002A08F1FF384F
:101990003BDC079B3B449F1A9BF800002E280AD192
:1019A0000399D0470028BEDBB8F1000F07F101070B
:1019B00031DC0BF1010B5D4638E0B94699F80000C7
:1019C0007028C84609F1010913D1EF1B149D474443
:1019D0003D44EB1B002B34DC039933464246504612
:1019E0001CF064FC00289EDB3844049E0546064437
:1019F00065E00399D0470028E0DA94E7069303995D
:101A0000D0470028069BB1DA8DE703993020D047F4
:101A10000028B9DA87E703993020D04708F1FF386A
:101A2000C0E70399D0470028FFF67DAF287819F862
:101A300000305907A84605F10105F2D4A7EB0B07C2
:101A4000C4E703993020D0470028FFF66CAF013778
:101A5000BFE79DF84A30DA0601D41B0706D5039983
:101A60003020D0470028FFF65EAF0135069B3BB122
:101A700003999DF84B00D0470028FFF654AF01357D
:101A8000A84406E003993020D0470028FFF64BAF6A
:101A90000135A8EB0503002BF4DC039933463A46E5
:101AA00050461CF003FC0028FFF63DAF28449CE79D
:101AB00003992020D0470028FFF635AF0135731B6E
:101AC000002BF5DCFFF793B91746C0E60DF15D0377
:101AD000BDE600BF52280200245B020000000000A7
:101AE0002DE9F843D0E90638456903EB08042F34A3
:101AF000A5420F46164619D8DFF87080A3FB0801EF
:101B000017A3D3E90023FEF7DFFF0346601BA0FB0A
:101B1000080123F07F4412A3D3E90023FEF7D4FF8A
:101B200020F07F403C603060BDE8F883DFF83C90F7
:101B30000BA3D3E90023A5FB0901FEF7C5FF20F0A5
:101B40007F4409480A2106A3D3E90023E8FB0901E1
:101B5000FEF7BAFF20F07F403C603060BDE8F883BC
:101B60008D49FD1A0700000000166BF100CA9A3B70
:101B700070B5234C9DF810E094F846C01CF0020F9D
:101B800036D1460816F0040532D149B363F3830C0D
:101B9000400194F82030A1864FEACE0E0EF0180EC8
:101BA00000F0200040EA0E0023F03803184394F8B8
:101BB0002C3084F82000134884F846C066F30203F2
:101BC00084F82C309121A2FB000301FB02310AA30F
:101BD000D3E90023FEF778FFC4E90E00284670BD64
:101BE00094F82C3065F3020384F82C30284670BD3D
:101BF0000C25284670BD00BF8D49FD1A0700000066
:101C0000A8200020002AE7842DE9F04390F8463010
:101C100090F82020464D6FF30003044600F12D019B
:101C2000C3F3800060F386128DB084F8463084F8E8
:101C300020200AF049FC94F82020A38E3D48E4615E
:101C400002F079024FF0000984F820209121A3FBD3
:101C50000002C4E9059984F8009001FB032132A336
:101C6000D3E90023FEF730FFE26BC4F8049002F1E1
:101C70000E03984288BF1946A4EB05052E4BC4F805
:101C80000C904FEA95059CBF4A460146A3FB0535DB
:101C90003123A2632161A36006460AF0D7FB4F46B9
:101CA0000DF12C08CDF8208006940397A38E00F147
:101CB0000E0920489121A3FB000201FB03212369A7
:101CC00004931E4B07931E4B059302230B9316A3FD
:101CD000D3E90023FEF7F8FE104619464FF47A7256
:101CE0000023FEF7F1FEC5F387050235EDB2CDE91D
:101CF000016003214B462A46009738460AF0B2FAA3
:101D000041460BF093F940B994F8463043F0020392
:101D100084F846300DB0BDE8F0830C200DB0BDE86E
:101D2000F08300BFAFF300808D49FD1A070000006B
:101D3000A8200020002AE784310CC33091C50000A0
:101D4000F1F70000000000002DE9F04F0B79092B9E
:101D500093B00C46074600F04C820D2B00F0E78153
:101D6000062B17D0084A0949094840F247131CF0CE
:101D7000BDFA002383F31188BFF36F8F0323184646
:101D800002DF13B0BDE8F08FB40F0200980A020022
:101D9000100A0200D1F808B0DBF808306BB1C24A73
:101DA000C249C34892231CF0A1FA002383F311888F
:101DB000BFF36F8F0323184602DFDBF8008098F82B
:101DC00049301D0754BFD8F85030002340460B93CC
:101DD0000EF044F80230C3B20E93637E27600025F4
:101DE00065F3C713637694F82130E560002B00F0AB
:101DF000E783CDE90C5501220F92A9462E4694F8AF
:101E00002220910600F0398294F9232094F823309F
:101E1000002AC0F2C681DA0704F1240A0AD50B9A17
:101E200032B198F8492002F03002202A40F03E8377
:101E300004F12A0A980748BF0AF1060A590748BF61
:101E40000AF1010A13F0080216BF514611460AF1C1
:101E5000020A13F0100216BFCDF840A010920AF14A
:101E6000030A9A0618D50AF11202002E00F07A82AF
:101E70000B98002800F07682002900F073824978E0
:101E80001192090940460FF0A3F8119A002840F07A
:101E9000ED8394F82330924694F82210580648BFF8
:101EA0000AF1010AC1F3050104F122030131AAEB91
:101EB0000303DBB2C9B28B429EBFCB1ADAB20B4628
:101EC00094F8211088BF0022994288BFCB1A21794B
:101ED0008CBFDBB200230D2900F01E82109A002A6D
:101EE00000F0248290785178020202F4F8520A43FA
:101EF00000F01C82002D40F0CB824009022800F245
:101F0000668300F0648310980F9D90F9000094F8A8
:101F10002110002805F00300084400F10900C5F372
:101F200040014FEAC000ACBF1E254FF49675C84073
:101F300005FB02FA05EB0A0100F5967291420F903B
:101F4000C0F02F81002E00F0EF83B9F1000F00F0F8
:101F5000BF83D9F80010B1F8F42013449BB2FE2BD4
:101F6000A1F8F430A38304D9A37E13F0010300F099
:101F700031840C9910980B79027862F305030B7188
:101F800082780123084652094979934063F302019C
:101F90004171A37EDB0700F1EE83BBF1000F00F07F
:101FA000A582B8F1000F00F0358498F8463013F0A0
:101FB000010340F00582CBF80830109B0C9A1B7887
:101FC0005079DFF8FC9013F0400F14BF32274FF424
:101FD000FA77384B07FB0AF7A3FB0737BF0C07F16B
:101FE0002F0305EB43039360012100F0070010F07D
:101FF00037FA31226369B26000250C9A7560F5608A
:102000005279A3F12F080F9BA8EB030802F00303FA
:1020100003F58473C2F34002DB00D340D04403F5E0
:10202000EA730344A8EB000823480721E3FB0901F6
:102030001BA3D3E90023FEF747FDA8EB070820F018
:102040007F4017A3D3E900233061A8FB0901FEF705
:102050003BFD2A4620F07F470221012008F0D2FFF5
:102060000E9BFF2B30D0CDE900551A4623693F3B2C
:102070003B44012128460AF063F910F0FD0F23D0FC
:10208000094A0E490A4840F20E331CF02FF985F335
:102090001188BFF36F8F032314E000BFAFF30080FC
:1020A0008D49FD1A07000000B40F02005010020015
:1020B000100A020083DE1B438C49FD1A2C1102001A
:1020C00000CA9A3B184602DFB3493C22304608F06A
:1020D00033FFB24A2369CDE90726B14ACDE9052687
:1020E000316900970024C21CCDE90341CDE90144C8
:1020F0003F3BD2B2012120460AF0B4F810F0FD0FA8
:102100000DD0A84AA849A94840F21E331CF0EEF8A9
:1021100084F31188BFF36F8F0323184602DF012277
:102120000221104613B0BDE8F04F08F06BBFD1F8A4
:102130000890D9F83C3073B19A4A9D499B484FF4B6
:1021400094731CF0D3F8002383F31188BFF36F8FCF
:102150000323184602DFD9F8005028460EF0D4FEBB
:10216000E368E080284699F80B600D930EF0CCFEF2
:10217000637E2760002565F3C713637694F82130EA
:10218000E56006F00706002B69D10B9398461E46C2
:10219000D9F80020B2F8F40000210344A383A2F888
:1021A000F4100B9B002B00F0DF8098F8493003F00F
:1021B0003003202B00F0878098F849306FF3051327
:1021C00088F84930002E6DD0336B002B00F0008171
:1021D00098F84620D10700F1F581DC603463B46AD9
:1021E000002C00F04481304613B0BDE8F04F0EF0F3
:1021F00039B88B680C931A46674B16689E4266D1B5
:10220000D6F828B0BBF1000F00F063833C223146C2
:10221000304608F091FE0330C3B20E93DBF8005055
:1022200028460DF037FE8046002800F0AE810C9B5A
:102230005A7990F8493002F00702180754BFD8F8CD
:1022400050300023012A0B9300F02081022A00F075
:10225000D380544A5749554840F2051387E5043066
:10226000C2B20E9294F822200F969106AB460B95BF
:10227000A8462E460C957FF4C7AD013BDBB2B9F101
:10228000000F85D1002E40F0CA80A3830B9B4BB179
:1022900098F8493003F03002202A03D06FF3051379
:1022A00088F84930214638460AF07CFE0D9A2AB15A
:1022B00001231068137111460AF074FE13B0BDE8D3
:1022C000F04F0AF075BE002E7FF47EAFEAE730468D
:1022D0000DF0E0FD8346002800F08A81D4F808B0B4
:1022E000DBF808300C93002B00F0F1800C9B1E688B
:1022F000B36A5B450DD02B4A2F492C48D2231BF0E3
:10230000F5FF002383F31188BFF36F8F0323184673
:1023100002DFFF230E9381E7002A3FF4DFADA079AF
:10232000119351460EF092FF119BD7E5B9F1000FC2
:1023300000F01181D9F80010B1F8F4200020134406
:10234000A383A1F8F400002D3FF42BAF002E00F082
:10235000F180336B002B00F0ED80DC60346313B050
:10236000BDE8F08F924697E5002E9BD0336B7BB390
:10237000B8F1000F0DD10B4A10490C484FF44E73C1
:102380001BF0B4FF88F31188BFF36F8F0323184647
:1023900002DF336B1CE700BFAC40002041FF0000B0
:1023A000F9FF0000B40F02005C110200100A0200E5
:1023B00094100200980A020068100200AC0F02009C
:1023C0000B9B002B40F00B82336B002B40F0FA800C
:1023D000B9F1000F3AD0214638460AF0EFFDD9F89E
:1023E000003093F8CA301A077FF5F9AED9F83C30BF
:1023F000002B3FF4F4AEC4E40723657E2371002173
:102400002B4661F3C713637694F821302760E160AF
:102410002BB189460F92C5F380050D91EFE4B28E82
:1024200013449BB2B386A3830B9B002B00F0DB808D
:1024300098F8493003F03002202A43D06FF3051397
:1024400088F84930336B002B7FF4C2AE984A994923
:10245000994840F256331BF049FF4FF0000989F3C9
:102460001188BFF36F8F0323184602DFB3E7904A4A
:10247000924991484FF458731BF038FF84F3118848
:10248000BFF36F8F0323184602DFACE60623B4E7E1
:10249000B9F1000F00F0E180D9F80010B1F8F42094
:1024A00013440022A383A1F8F4204FE794F82010EE
:1024B00000235246C1F3801140460EF055FD94F8BA
:1024C0002330B5E4336B002B7FF482AEBEE7784A4D
:1024D0007B497948CF231BF009FF0C9B83F31188BC
:1024E000BFF36F8F0323184602DFFFE6D9F83C30B5
:1024F0009BB1D9F83C300C9A93420ED06C4A71498A
:102500006D4840F2BB231BF0F1FE002383F31188DA
:10251000BFF36F8F0323184602DFD9F8003093F81A
:10252000CA30180700F1BD810C9BC9F83C30F46239
:1025300043E5A3835E4A64495F484FF4FC731BF094
:10254000D5FE002383F31188BFF36F8F0323184652
:1025500002DF336B01E7002E76D0B28E13449BB2BC
:10256000B386A383002D7FF4F4AE0B9B002B3FF4C6
:10257000FDAE98F8493003F03002202A3FF424AE33
:102580006FF3051388F849301EE60C9B5B7903F066
:10259000070381460F930D23284623710EF0B4FCE8
:1025A000637EE080002565F3C713637694F82130DD
:1025B0002760E560002B3FD00B95A8460D951EE4E3
:1025C0000D9362E69C427FF4C8AEFFF7DABBB9F127
:1025D000000F55D0D9F80010B1F8F4201344A383AC
:1025E000A1F8F450DDE5336B002B7FF4C1AE2DE78D
:1025F000D4F80890D9F83C300C93002B48D00C9BB1
:102600001E68B36A4B450DD0294A30492A48E12358
:102610001BF06CFE002383F31188BFF36F8F03233D
:10262000184602DF0C9BD9F800505B7903F00703D2
:102630000F93FF230E93AEE70B9398460D93B9F1DA
:10264000000F7FF4A5AD1DE6A383002D7FF472AFCC
:102650000B9B002B7FF41CAE24E6002E3FF469AFE9
:10266000B28E13449BB2B386A38372E653463146BF
:1026700092464046224600F04FF994F823300BE48E
:10268000002E4FD0B28E13449BB2B386A3836CE767
:10269000074A0B490848DE231BF028FE0C9B83F3F6
:1026A0001188BFF36F8F0323184602DFA7E700BF2F
:1026B000B40F0200F80F0200100A02008810020096
:1026C00060100200E8100200A81002007C10020056
:1026D000B28E13449BB2FE2BB38603D9A37EDA07D6
:1026E00040F1A880336B002B00F08480DC600C99F3
:1026F000B38E10983463A38302780B7962F30503D9
:102700000B7182780846497952090123934063F39B
:1027100002014171A37EDB073FD4BBF1000F7FF4C0
:1027200040ACEBE6A38393E774480C9308F0DAFB24
:102730000C9B002800F092800D9A826390F8202074
:10274000067066F3C71280F82020BBF1000F14BF9B
:102750005A464A46826200F11C02C0E90566C6621A
:1027600006638386C0610C92B9F1000F3FD00D96CD
:102770000646FFF7EEBB0C9BC9F83C30637E43F086
:1027800080032146637638460AF018FC0C9A1379C8
:102790006FF386131371FFF7F4BADBF808308BB1CF
:1027A0000C9A93420ED0564A5649574840F2962307
:1027B0001BF09CFD002383F31188BFF36F8F03236D
:1027C000184602DF0C9BCBF80830637E43F0800391
:1027D0006376DBE7A1F8F4300B9B002B64D098F80C
:1027E000493003F03003202B7FF4E6ACECE40646DE
:1027F000CDF83490C6E90B440C99B38E1098A3839E
:1028000002780B7962F305030B718278084652094E
:1028100049797AE73A4A3D493B4840F2AD231BF0FB
:1028200065FD88F31188BFF36F8F0323184602DF1D
:10283000FFF7BBBB0B9B002B3FF4D5AE98F849309C
:1028400003F03002202A3FF43DAE69F3051388F807
:102850004930336B002B7FF4BBACF7E5A27ED10788
:1028600003D5627E42F080026276B9F1000F20D07B
:10287000D9F80000B0F8F4201344A3830B9B002187
:10288000A0F8F410002B3FF40DAD98F8493003F098
:102890003002202A3FF406AD61F3051388F8493071
:1028A00000E50B9B002B9AD1336B002B7FF460ADBE
:1028B00091E50B9B002B3FF4F5AC98F8493003F001
:1028C0003002202A3FF4EEAC69F3051388F8493052
:1028D000E8E40B4A0E490C48BE231BF007FD8BF3BE
:1028E0001188BFF36F8F0323184602DF3C22314665
:1028F000304608F021FBDBF80030FFDEA840002066
:10290000B40F0200BC100200100A0200AC0F02005B
:1029100028100200000000002DE9F04F046D94F82B
:102920003E6084F83F601D4681463223062010FB3E
:1029300006306B6823502B7A204403F01F03037189
:102940008FB00F4606EB4606052104EB460690467F
:1029500008F0A6FC96F8373000F03F0060F305035E
:10296000012886F8373040F2428199F8493094F8CE
:10297000CA20C3F3010363F3000284F8CA20D9F824
:102980004A30C4F8C430B9F84E30A4F8C8302046F4
:10299000D5F8093040F8203F0EF064FE2086B5F8E7
:1029A0000D30EA7B84F82620A3842B8AE38597F8F0
:1029B000212094F8273062F3020384F82730B5F819
:1029C00002B0B4F8BA2040F2E2431FFA8BF603FBE0
:1029D00006F642F21071731E01FB0233B3FBF6F3ED
:1029E0009BB2A4F8BC30B4F8BC309BB2062B00F20A
:1029F00001810023A4F8B83094F8CA30062262F3AB
:102A0000061384F8CA3095F808A00FF0B7FE4FEA15
:102A10005A1A074650460FF0B3FE3B1806FB03F365
:102A20007B4A7C4903F5742303F23F23A2FB032373
:102A30009B0C63647308963BA3646B7813F0200FC0
:102A40000CBF1E234FF4967363650023C4F8B030A7
:102A500099F84930022262F3051389F84930F822C7
:102A6000204608F069FAD4F8F0300C900C22C3F834
:102A70000890A3F822B0D8801A7194F8272083F820
:102A800024A0C2F3020283F8212094F82700012138
:102A900000F007000FF0E4FC95F801E02B7894F8C3
:102AA00027C098F82120D8F81410676D1EF0400F49
:102AB0004FEA0E2E0EF4F85E4EEA030E0CF00303FE
:102AC0001A4402F10902CCF3400C4FEAC202A1F110
:102AD0002F0522FA0CF207FB0E55A5EB0205A5EB1C
:102AE00000050CBF00224FF416121544A5EB010996
:102AF00040F28A22914503D8E28D01323544E285C5
:102B000003F58473DB0023FA0CF303F5EA73DFF8B3
:102B1000289118444FF0070B3F4B5946E0FB093111
:102B20001846636CF61A31234FF0000AA360A6FB27
:102B30000937C4F804A0C4F80CA00B9332A3D3E95E
:102B40000023FDF7C1FF354BC4F8C03020F07F46AD
:102B50002DA3D3E900230B98266139460D97FDF785
:102B6000B3FF06940496D8F810302D4A0792A3F1CB
:102B70003F082C4B0B9ACDF80CA020F07F44A4FB0F
:102B80000331D01A0D9B0C9F0BFB041163EB010169
:102B9000254B059340F2723308934FF47A72002369
:102BA000FDF792FF18A3D3E90023CDE90140A5FB6F
:102BB0000901FDF789FF043720F07F40FFB2009044
:102BC00043463A460121504609F04CFB10F0FD0FF8
:102BD0000DD0164A1649174840F273331BF086FB96
:102BE0008AF31188BFF36F8F0323184602DF0FB0FB
:102BF000BDE8F08FB4F8BC30B4F8B820063B9BB207
:102C00009A427FF6F9AEF5E68D49FD1A07000000FD
:102C100083DE1B432C4100208C49FD1A794C0100B6
:102C2000090801008D49FD1AC5060100E8110200DE
:102C3000280F0200100A020000CA9A3B00000000A0
:102C40002DE9F0418AB002230C4615462C49099320
:102C5000F82208F071F9DFF8B48009AB0693294B2C
:102C60000593002724A3D3E90023061DA5FB080133
:102C7000CDE90377FDF728FF034623F07F43029356
:102C8000A4FB08011CA3D3E90023FDF71DFFF6B246
:102C900020F07F40CDE900703B46324603213846A4
:102CA00009F0FCFA10F0FD0F0CD0099B022B19D192
:102CB000099B012B14BF6FF00B006FF001000AB0ED
:102CC000BDE8F0814FF0FF324FF0FF330E4817F0B0
:102CD000DFF8099B012B14BF38466FF00D000AB0D6
:102CE000BDE8F0814FF0FF324FF0FF33064817F098
:102CF000CFF8DDE7AFF300808D49FD1A0700000033
:102D00002C410020FD0701001041002000CA9A3B21
:102D10002DE9F04F8FB00DF137010446DFF810A117
:102D2000DFF810810DF136000AF056F99DF83630C3
:102D30009DF837B00B9309F089FBDAF80060A6FB29
:102D4000085631A3D3E9002300278146314628469F
:102D5000FDF7BAFECDE90777069420F07F44DAF854
:102D600004002B4B0593A0FB080127A3D3E9002304
:102D7000FDF7AAFE274B20F07F40A4FB033107227A
:102D800002FB0411CDE90370E81A66EB01014FF470
:102D90007A720023FDF798FE0097CDE901404B467B
:102DA0000B985A46032109F05DFA10F0FD0404D097
:102DB0006FF08B000FB0BDE8F08F1748174A002363
:102DC00017F066F820B9DAF80C000FB0BDE8F08F04
:102DD0009DF837209DF8360000942346032109F022
:102DE000F3FA10F0FD0F0CD00D490E4A0E48E42303
:102DF0001BF07CFA0D481BF079FA0A48E4211BF01D
:102E00006CFA6FF07300D5E78D49FD1A07000000DA
:102E10006D1A01008D49FD1AF0540020447B0B000F
:102E20008014020010140200100A0200C8140200EC
:102E30000855002000CA9A3B38B50F4D044609F0EA
:102E400005FBA96809F004FB696803460B48B3FB5E
:102E5000F4F4A1FB00011C4405A3D3E90023FDF712
:102E600033FE20F07F40844294BF0020012038BD13
:102E70008D49FD1A070000000855002000CA9A3B42
:102E80002DE9F04F476A97B08DED000B55EC104BD4
:102E9000209E089183460C9212937FB9102019F05E
:102EA000FBFA0246CBF8240020B9A74BEA21A74839
:102EB0001AF068FBC0E901770760C760DBF82430CF
:102EC000196859B15A684A60012393408B6058468B
:102ED00019F082FFDBF8243000221A602B1EB9BFE4
:102EE00023F00043019300233360019F984BBCBF44
:102EF00001223260BB4319D1129A42F20F73136060
:102F0000C7F31303234300F0DD85219B53B9914B95
:102F100021E0914B03930833219A1360039817B073
:102F2000BDE8F08F8B4B03930333F5E79DED007BFA
:102F3000002251EC170B00238DED0A7BFDF754FDA9
:102F4000804650B1129A01231360219B13B1219A3C
:102F5000824B1360824B0393E0E79DED0A0B14AAAA
:102F600015A958461AF0BAF9C7F30A560290002E6E
:102F700078D00B9BCDF84C80C3F31303DDE90A0135
:102F800043F07F5343F44013A6F2FF361946002264
:102F9000744BFDF709F966A3D3E90023FDF7BCFAEA
:102FA00065A3D3E90023FDF701F9044630460D4639
:102FB000FDF748FA62A3D3E90023FDF7ADFA024614
:102FC0000B4620462946FDF7F1F804460D46FDF76D
:102FD00053FD00220746002320462946FDF70EFD3B
:102FE00040B13846FDF72EFA22462B46FDF7FCFC91
:102FF00000B9013F162F52D85B4B03EBC703D3E94F
:103000000023DDE90A01FDF7F9FC002849D0013F62
:1030100000231193149B9B1B5A1E45BFC3F1010350
:10302000069300230023079254BF06930793002FB3
:1030300039DB079B10973B44079300230993089BB8
:10304000092B66D8052BC4BF043B0893089BA3F14A
:103050000203CCBF00240124032B65D8DFE803F072
:103060002B383657DDE914631E4406F23243202B19
:10307000C1BFC3F140039F4006F2124324FA03F399
:10308000D6BFC3F1200347EA030004FA03F0FDF7BB
:10309000C9F90122A1F1F873013E139276E70123E9
:1030A000B7E71190B6E7069BDB1B06937B420993BB
:1030B00000231093C3E700230D930C9B002B57DCD8
:1030C0000123049399461A460C920CE00123F3E77E
:1030D00000230D930C9BFB1803F1010904934B464D
:1030E000012BB8BF0123DBF824000021042202F1E8
:1030F00014059D4240D94160584619F02DFE0390B9
:1031000000283CD1194B02464FF4D571CFE601237C
:10311000DFE70124002308930D944FF0FF3304935D
:10312000994600221223CFE701230D93F5E700BF54
:1031300061436F63A787D23FB3C8608B288AC63FBD
:10314000FB799F501344D33F5F5C0200765C020022
:103150000000F07F5B5C0200525C0200FA4F02004C
:10316000F94F02000000F83F30070200D25C020075
:103170000C9B04939946B6E701315200B7E7DBF8A0
:103180002430039A1A60B9F10E0F6FD8002C6DD05D
:10319000002F36DDA14B07F00F0203EBC20393EDC6
:1031A000007BF8058DED0E7B4FEA271417D59C4B5D
:1031B000DDE90A01D3E90823FDF7D8FACDE90001DA
:1031C00004F00F044FF00308954D5CB9DDE90E23C0
:1031D000DDE90001FDF7CAFACDE900012BE04FF06F
:1031E0000208F1E7E10709D5DDE90E01D5E9002381
:1031F000FDF792F9CDE90E0108F1010864100835D8
:10320000E3E700F007817C42844B854D04F00F0218
:1032100003EBC203D3E90023DDE90A01FDF77CF9E2
:10322000CDE90001241100234FF00208002C40F0EA
:10323000E580002BD0D1119BDDE90045002B00F08B
:103240004C81784B002220462946FDF7D7FB002809
:1032500000F04381B9F1000F00F03F81049B002B87
:1032600000F3E480DDE90A34CDE90034159B002B3E
:1032700002DB0E2F40F342820D9A002A40F0678253
:10328000099CDDF818800025B8F1000F0DD0079BD0
:10329000002B0ADD4345069AA8BF4346D21A069280
:1032A000079AA8EB0308D31A0793099B0BB30D9B4E
:1032B000002B00F0A682002C00F0A18229462246B5
:1032C000584619F0B1FE029A01460546584619F0D3
:1032D00001FE02990646584619F07EFD099B1B1B0C
:1032E000099300F09182099A3146584619F09CFEE4
:1032F00002900121584619F0D7FD109B0446002B7F
:1033000000F084821A460146584619F08DFE089B4B
:10331000012B044603DC009B002B00F07C8200267E
:10332000236904EB830318691CF02AFD1096C0F191
:103330002000079B184410F01F0000F09182C0F19C
:103340002003042B40F38182069BC0F11C00034440
:103350000693079B034480440793069B002B05DDDF
:1033600002991A46584619F0B9FE0290079B002BA5
:1033700005DD21461A46584619F0B0FE0446119B59
:10338000002B00F07682029821461CF048FD0028B0
:1033900080F26F82002302990A22584619F03EFDFE
:1033A0000D9B02907E1E002B00F05C8200232946BC
:1033B0000A22584619F032FD049B002B054603DC17
:1033C000089B022B00F35E82B8F1000F05DD294651
:1033D0004246584619F082FE0546109B002B00F02D
:1033E000D0826968584619F0B7FC0746002840F0BB
:1033F0007F820D4B024640F2EA2158E5E20706D5EE
:10340000D5E90023FDF788F808F1010801236410CD
:1034100008350BE74FF002080DE700BF3007020048
:10342000080702000000F03FD25C02002046AD4BCE
:1034300000222946FDF770F8CDE90001049C7E1EAC
:1034400008F101084046FCF7FDFFDDE90023FDF728
:1034500063F8A54B0022FCF7A9FEA1F15073CDE95A
:103460000E010F93002C3BD1DDE900019F4B0022A0
:10347000FCF79AFE02460B46CDE90023DDE90E2358
:10348000FDF7DAFA002840F05781DDE90E2101F15D
:103490000043DDE90001FDF7B1FA00283FF4E2AE98
:1034A000002425460C9BDDF80CA0DE434FF00008FD
:1034B0002146584619F090FC002D00F0A980B8F183
:1034C000000F05D0A84503D04146584619F084FCAA
:1034D0002946584619F080FC9AE03E464C46B1E732
:1034E000834B03EBC40353E90201039B1C440D9B74
:1034F000002B4AD002460B4600207E49FDF736F9E4
:10350000DDE90E23FCF750FECDE90E01DDF80CA03D
:10351000DDE90001FDF7B0FA0546FCF793FF02462E
:103520000B46DDE90001FCF73FFE3035CDE9000137
:1035300002460B460AF8015BDDE90E01FDF77CFA55
:10354000002865D1DDE900236B490020FCF72CFE43
:1035500002460B46DDE90E01FDF76EFA002840F049
:103560000D81A24500F0EA80DDE90E015D4B0022ED
:10357000FCF7D2FF5B4BCDE90E010022DDE9000133
:10358000FCF7CAFFCDE90001C2E7DDE90E23FCF735
:10359000C3FFCDE90E01DDF80CA0A046DDE9000176
:1035A000FDF76AFA0546FCF74DFF02460B46DDE9DA
:1035B0000001FCF7F9FD30350AF8015B02460B46C5
:1035C000A245CDE900234FF0000223D1494BDDE9AC
:1035D0000E01FCF7EBFD02460B46DDE90001FDF7AD
:1035E0002BFA002840F0CA80DDE90E234149002073
:1035F000FCF7DAFD02460B46DDE90001FDF7FEF9B6
:1036000070B1C24608F1FF381AF8013C302BF8D0EF
:10361000374655E0334BFCF77FFFCDE90001BDE7AE
:10362000DDE90A34CDE90034159B002BFFF628AE06
:103630000E2F3FF725AE2E4B03EBC70393ED007B18
:103640000C9B002B8DED047B02DAB9F1000F64D0E6
:10365000DDE90045DDF80CA0DDE90423204629461C
:10366000FDF784F8FDF708FA0646FCF7EBFEDDE906
:103670000423FCF751FF02460B462046294606F17B
:103680003004FCF791FD0AF8014B039CAAEB0404FB
:10369000A14502460B4640F08280FCF787FDDDE93C
:1036A000042304460D46FDF7C7F9002865D1DDE97E
:1036B000042320462946FDF797F908B1F3075CD4A7
:1036C0000299584619F088FB00238AF80030129BB3
:1036D00001371F60219B002B3FF420ACC3F800A0F2
:1036E0001CE400BF0000244000001C400000144007
:1036F000300702000000E03F0000F03FA24B03EB68
:10370000C70393ED007B0C9B002B8DED047B9FDAB0
:10371000B9F1000F9CDC7FF4C3AE9C4B0022DDE9C5
:103720000401FCF7F9FEDDE90023FDF77BF904460F
:1037300000287FF4B5AE3E462546B4E0DDE90A3404
:10374000CDE90034159B002B01DB0E2FD6DD089A46
:10375000012A36DC139A82B303F23343099CDDF865
:103760001880069A1A440692079A01211A4458466C
:10377000079219F099FB054686E53E4653469A4660
:1037800013F8012D392A06D1039A9A42F7D10399E9
:10379000302201360A701A7801321A7038E77C4BF1
:1037A0000022FCF7B9FE0022002304460D46FDF777
:1037B0001BF900283FF450AF82E7149BC3F1360396
:1037C000CCE7099B09F1FF34A34208DBB9F1000FF4
:1037D000A3EB04040EDBDDF818804B46C1E7099B20
:1037E000109A0994E31A1A44DDF8188010924B4697
:1037F0000024B6E7069BA3EB09080023B1E7029E6D
:1038000071E5099A029970E5029672E5089B012B11
:1038100017DC009BABB9019BC3F313039BB9019B5E
:1038200023F00046360D360536B1069B013306936C
:10383000079B013307930126109B002B7FF470AD8B
:103840001096012075E50026F6E73FF486AD069A4E
:103850001C331A440692079A1A44984407927CE54E
:103860000346F4E7049B002B2BDC089B022B09DCAE
:1038700027E0B9F1000F1DDC089B022B1ADDCDF803
:1038800010903E46049B002B7FF40CAE214605228F
:10389000584619F0C3FA0146044602981CF0BFFAD4
:1038A00000287FF7FFADDDF80CA031230AF8013BBB
:1038B0000136FBE50D9BCDF810903E46002B7FF4C2
:1038C00083AD039F029821461CF0D2F900F1300924
:1038D00007F8019B039B049AFB1A9A4240F3CB80A2
:1038E000029900230A22584619F098FA0290E9E753
:1038F0002A690232920005F10C010C301CF04BF8E1
:1039000001223946584619F0E9FB039B03F1010AED
:10391000DDE9032313440793009B03F00103A8464A
:10392000099305460AF1FF332146029804931CF0DF
:103930009FF94146069000F1300902981CF06FFA99
:103940002A4621460746584619F034FCC26801460B
:1039500002B3584619F040FA002F3ADA02990122D0
:10396000584619F0BBFB214602901CF058FA00287B
:1039700003DC29D119F0010F26D0B9F1390F1DD17F
:1039800032E02846C1E700BF3007020000001440C3
:10399000000024400A9002981CF041FA0A990C9009
:1039A000584619F019FA0C9A5ABB089B53B9099B4F
:1039B00043B9B9F1390F17D0002F05DD069B03F18C
:1039C000310901E0002F2ADADDF810A00AF8019B86
:1039D0006EE5089B3B4304D1009B03F00103002BE1
:1039E000BCD0B9F1390F36D1049F392307F8013B18
:1039F000BA46013F1AF8013C392B5BD001333B70CA
:103A000056E5002F06DB089B3B4306D1009B03F0E5
:103A1000010313B9002AA1DCD6E7002AE1DC079BE9
:103A20000AF8019C534557462FD0029900230A22D9
:103A3000584619F0F3F9A84502904FF000034FF0F3
:103A40000A02414658460BD119F0E8F9804605466E
:103A50000AF1010A66E7DDF810A009F10109B5E7EE
:103A600019F0DCF92946804600230A22584619F04D
:103A7000D5F90546ECE7049B002BC8BF1F46039B06
:103A8000D8BF01271F444FF0000802990122584671
:103A900019F024FB214602901CF0C1F90028A7DC94
:103AA00002D119F0010FA3D1BA4617F8013D302B0E
:103AB000FAD0FDE4039BBB429AD1039A312301362D
:103AC0001370F5E4219B002B7FF423AA014BFFF731
:103AD00042BA00BF525C02001FB5184A18480321C1
:103AE0001AF00FF900238DF8073001224FF096737A
:103AF00014496846CDE9022306F09EFF0446C0B192
:103B000010F1100F10D010F10C0F14D00E4A0F4905
:103B10000F48BA231AF0EAFB0E4821461AF0E6FBDA
:103B20000948BA211AF0D9FB0B4A054802211AF0BC
:103B3000E8F804B010BD094AF7E700BF501D0200C5
:103B40005C060200442500206F1D02008B1D020050
:103B5000B01D0200CD1D0200E61D0200031E020082
:103B600070B503788AB004460E4607AD032B20D803
:103B7000DFE803F002191B1D114928461CF03FF82D
:103B8000059563780493A3780393E37802932379EC
:103B9000019363790093A3790A4A1E2130461AF0F3
:103BA0003FFB0AB070BD0849E7E70849E5E7084967
:103BB000E3E7084A0A2128461AF032FBE0E700BF93
:103BC0001C1E02003E1E0200231E02002A1E0200CE
:103BD000341E02005D3B02002DE9F047ADF5047D87
:103BE0004FF40072002104A81BF0E3FE0025244CD2
:103BF000DFF8ACA04FF00A082F464FF06409267B8F
:103C0000CEB1E3692068002B08BF3E4606F0A6FE51
:103C1000D4E906170346B7FBF1F204A809FB02F248
:103C2000CDE9017200912844C5F50071524619F0A2
:103C30004FF837460544B8F1010804F12004DED1FD
:103C4000104804A91AF0DFFA4FF40040002117F0E1
:103C50006DFD3FB90C480D4A03211AF052F80120BE
:103C600001F022FD0A490B4A0B487E231AF03EFB65
:103C70000A481AF03BFB07487E211AF02EFB00BFD2
:103C800048250020332302005C060200A71E020024
:103C9000F94F02006F1D0200B01D0200C41E020099
:103CA000611E0200F8B507460C4609B1FF230B6000
:103CB0000C4E0025737B3BB97CB901350A2D06F10A
:103CC0002006F7D1FF2506E00722311D38461BF0FC
:103CD00052FE0028F1D12846F8BD2368FF2B08BF0B
:103CE0002560EAE7482500201FB5CB790C4603BBC9
:103CF00069461AF097FF014670B12249224A2348CB
:103D000040F25B131AF0F2FA21481AF0EFFA40F28F
:103D10005B111D481AF0E1FA6846FFF7C3FFC2B213
:103D2000FF2A08D11B4A1C48012119F0EAFFFFF7BE
:103D3000D3FE04B010BDA17A52290AD0A379174846
:103D40001AF061FAA379012BF3D015481AF05BFA47
:103D5000EFE7144B03EB4212137B0BB1537B63B9B8
:103D60001149094A094840F26B131AF0BFFA0F488B
:103D70001AF0BCFA40F26B11CBE7136901331361FF
:103D8000D7E700BF001F02006F1D0200B01D020038
:103D9000091F02003E1F02005C060200641F0200B1
:103DA000A71F020048250020AC1F0200F71F0200D9
:103DB0002DE9F04F884697B002AF07F11001064693
:103DC000D8F800009246FFF7CBFED8F8000000219B
:103DD000FFF768FFC5B2FF2D00F08E804D4C04EB5D
:103DE00045134FEA451993F80CB0BBF1000F7FD093
:103DF0009B8A7B60304606F0B1FD7B6883420ED023
:103E00004549464A464840F22F131AF06FFA454892
:103E10001AF06CFA40F22F1140481AF05EFABAF824
:103E20000430082B64D1DAF80030002207F10801D1
:103E30003A728A4603F10802023312F8010D01F8C2
:103E4000010F9342F9D107F130015046FFF788FE88
:103E500004EB090330469A8AC7E9003206F07EFD7A
:103E60007A68824239D03B6830469B8A7B6006F094
:103E700075FD00907B682C4A2C4801211AF06FFCDC
:103E8000D8F80010072250461BF075FD40B33046AD
:103E900006F064FD6E468CB002AA254BD061C2E9E3
:103EA000053507F11003136207F130035362214B0C
:103EB0009362214B42F8103F00231C484FF461519C
:103EC00002F02CFB04EB0902B546936901339361C0
:103ED0004C44E3690133E3610AE04FF0000BCFE7A4
:103EE00004EB0902936901339361BBF1000FEFD139
:103EF0005437BD46BDE8F08F084A104908484FF4D2
:103F0000A5731AF0F3F929460D481AF0EFF94FF4AA
:103F1000A57181E7482500201B2002006F1D0200CB
:103F2000B01D0200632002007E2002005C06020039
:103F3000B12002000204030506000002F94F02004E
:103F4000F4200200F0B593B000AF0D4604461E22E7
:103F5000002107F128001BF02CFD07F1280228465C
:103F60003249334D04F0E2FC07F108012068FFF705
:103F7000F7FD2B684FF4FA7293FBF2F102FB113359
:103F80007BB96E4688B06A462A4951612A499161D7
:103F9000032142F8101F29484FF4C85102F0BEFA1D
:103FA000B5462B6801332B606389C3B124480D22C9
:103FB00007F128011BF02BFE88B92568391D28461A
:103FC000FFF770FEFF280AD12179284606F03AFE55
:103FD000034638B11B4A194801211AF0B6FB4C3789
:103FE000BD46F0BD6D4688B06A4617495161124919
:103FF0009161032142F8101F10484FF4C85102F09C
:104000008DFA12497B685A0101EB43134FF480701B
:1040100098812079D872131D22681068C850AD4667
:104020005D1891889379AB71A980D8E707DD01000D
:104030004025002033210200FC2402005C0602001F
:104040004B2102005921020089210200482500204D
:104050002DE9F0470C4688B000AF05463946206888
:10406000FFF77EFD1BF0CBFB8046284689466D4658
:1040700006F074FC8CB094F805E06A46444B53613A
:104080004FF47A71A8FB013C01FB09C1DB0B43EA49
:104090004143C2E9073040F2035393853D4E3E4B06
:1040A0009661C2E9097E42F8103F3C4800234FF474
:1040B000745102F033FA00212068AD46FFF7F2FD9B
:1040C000C0B2FF2813D1364A3448012119F019FE35
:1040D0003449354A354840F209131AF007F9344893
:1040E0001AF004F9304840F209111AF0F6F8DFF836
:1040F000D8804FEA401908EB401090F80CA0BAF1B4
:10410000000F1AD088B06A462A4BC2E9053603234D
:1041100042F8103F214800234FF4C85102F0FEF945
:10412000AD462022002108EB09001BF042FCFFF7FE
:10413000D3FC2037BD46BDE8F087437B0BB36379E2
:104140001D4A164801211AF000FB88B06A461B4B35
:10415000C2E90536032342F8103F104853464FF496
:10416000C85102F0DBF9AD462179206806F09CFDCC
:1041700003460028D5D0124A084801211AF0E5FA72
:10418000CFE7104A0548012119F0BBFDC9E700BF80
:10419000A72102000E250200070000015C060200B4
:1041A000EB210200F94F02006F1D0200B01D02005A
:1041B0000F220200352202004D2202007B22020063
:1041C0009C220200C7220200482500202DE9F0476A
:1041D0000C4688B000AF054639462068FFF7C0FCA2
:1041E0001BF00DFB4FF47A72A0FB020302FB0133BC
:1041F000C00B40EA4349284606F0B0FB227AE1882A
:10420000042A96BF404EDFF830C156F822C001EBB9
:1042100081036E468EB09B106A46DFF82081DFF87E
:1042200020E1C2F814E0C2E90A13384B5363384B5B
:10423000C2F830C0C2E90689C2E9080742F8103F57
:10424000002334484FF4A24102F068F900212068AD
:10425000B546FFF727FDC3B2FF2B0AD12E4A2D48E2
:10426000012119F04EFDFFF737FC2037BD46BDE8B0
:10427000F0875A01DFF8CCA028460AEB43194AF828
:10428000025006F06BFB0123A9F8140089F80C30EA
:104290002179206806F008FD88B004466A461F4B65
:1042A000C2E90538032342F8103F1A4800234FF4AF
:1042B000C85102F033F9B54664B11949194A1A4890
:1042C000DC231AF013F819481AF010F81548DC210D
:1042D0001AF003F8FFF700FC23469AF80C2002B10D
:1042E000013401330A2B0AF1200AF6D1032CBCD188
:1042F0000F4A0848022119F004FD4FF42032002330
:104300000C4816F079F9B0E7F80702000305060833
:10431000090000025C060200372302005623020057
:10432000001F02006F1D0200B01D02007823020072
:10433000B6230200C0040020DE220200062502008F
:10434000E6220200482500202DE9F04F434885B0C1
:1043500019F059FF00214FF4A07241481BF029FBCE
:10436000404819F050FF002005F0D2F9014610B185
:104370003D4819F048FF3D483D4C19F044FF3D4889
:1043800019F041FF3C4806F0D1FA3C4819F03BFFD8
:104390003B4819F038FF3B4806F03CFC374819F021
:1043A00032FF002325780393CDE901331023ADF8C4
:1043B0000630ADF8083065B9334819F024FF2946B6
:1043C00001A806F063FA0146002839D0264819F002
:1043D0001AFFFFF781FB2D482D4EDFF8C09019F032
:1043E00012FF4FF0000800214FF4004017F09EF933
:1043F0004FF4FA72002130461BF0DBFA4946304692
:104400001BF0FDFB164DDFF898A0DFF898B00524EF
:1044100000272B7BA019C4F5FA71BBB12B691D4A8B
:1044200018F056FC01370A2FC5F81080044405F136
:104430002005EED118480022314619F0E4FED2E7FB
:104440000A4819F0E0FE01232370C2E76B7B1BB121
:104450005A4618F03DFCE5E75246FAE7E22302002F
:104460004825002008240200B6220200242402006D
:10447000805A00202D24020010060020482402004B
:10448000522402001C0600207D2402008F2402001A
:104490008C580020BA240200CA240200B42402006E
:1044A000C7240200BE240200F8B50F4600294BD0F5
:1044B0000468204619F079FC012201460546204691
:1044C00019F03BFCC3070DD4204A21492148AF23F2
:1044D00019F00CFF3946204819F008FFAF211B489E
:1044E00019F0FBFE2946204619F03DFC2E183146F6
:1044F0000022204619F021FC361AB5420BD0134A8F
:1045000016491448B72319F0F1FE3946144819F03A
:10451000EDFEB721E3E72946204619F02AFC29469B
:1045200019F021FCA368B3F5004F636938BF04227A
:10453000A3EBC00328BF0822134463612946204629
:10454000BDE8F84019F071BDF8BD00BF16250200A6
:1045500039250200B01D02004A2502008225020012
:10456000A82502002DE9F84305681446AA680F46FD
:104570004B1EB2F5004F34BF042108213B4010D040
:10458000C7F1000909EA0709494503F1FF3028BFCF
:10459000494618420CD11F46DCB900263046BDE81A
:1045A000F8838F4213D82146BDE8F84319F07FBD48
:1045B0003849394A39484FF4A27319F097FE384800
:1045C00019F094FE34484FF4A27119F086FE994612
:1045D000E2E7B2EBD40FE0D9E319591A104619F00B
:1045E000EEFB0146284619F054FC80460028D4D042
:1045F000AB68B3F5004F34BF0423082309EBC006B2
:104600001E442E447B1E1E44B6FBF7F67E43A6EBEB
:1046100009063146284619F0C8FB3444073424F013
:104620000704641B804507464FEAE40408D20246AB
:104630004146284619F067FC4146284619F0A8FC77
:104640003946284619F08FFB3844844208D239464F
:104650002846224619F057FC2146284619F098FCB6
:1046600001223946284619F084FB394619F07BFBB4
:10467000AB68B3F5004F6B6934BF0422082203EB2B
:10468000C000801AAB69686183422CBFAB61A8612E
:1046900084E700BFE425020016250200B01D0200D9
:1046A000FF250200B2F5802F2DE9F04110D2042A37
:1046B00028D84549454A46484FF4F97319F016FE83
:1046C000444819F013FE4FF4F971404819F005FE03
:1046D0000823D21ACC1D114424F0070421F007014D
:1046E000091B27294FEAD1070ED83B49374A3848DA
:1046F00040F2FB1319F0FAFD364819F0F7FD40F2CD
:10470000FB11E2E70423E4E7002504603946C4E92D
:104710000355C4E90555A760384619F059FB012136
:1047200000F108028046384619F049FB9200D61D78
:10473000F6083044B8423AD8B8F1FF3FA2F11C0263
:104740002946B8BF2A4604F11C001BF032F9324654
:104750002946204619F025FB2B462A4629462046A5
:1047600019F0F6FAA7EB060820462946012219F0AF
:1047700000FB4246314619F014FB33462A463146C7
:10478000204619F0E5FA3946204619F00AFB43465F
:104790002A463946204619F0DBFA394620460122DE
:1047A00019F0E7FA3146BDE8F04119F0F1BB0B49C9
:1047B000064A07484FF4037319F098FD054819F0AD
:1047C00095FD4FF4037180E71C26020016250200B8
:1047D000B01D02003D260200562602007F26020080
:1047E0002DE9F04F91B08407009302F00403029387
:1047F000C2F3C20303F10103DDF8688003920546AA
:104800000E46059340F0F781041D30B1072909D801
:104810006FF01B0011B0BDE8F08F01F00706341DEA
:10482000C6F10806009B4FF000094FF0FF324FF031
:10483000040B591ECDF810904F464B460192DA46B4
:104840000DB1009820600598002800F3D7809948A2
:10485000009A824203D398488242C0F0CF80039AE4
:10486000A4EB050E92074FEA9E0040F1E2804FF064
:10487000000CCCE07A285CD84B280CD8472858D8B4
:1048800029282AD8252851D053D8202877D0233852
:104890004342434173E04C382E284AD8DFE800F009
:1048A0006F49494949494949494949494B49494950
:1048B000494949494959494B4B5959596F4B6C49D9
:1048C0006F49184B184949807D4B49494B497D0038
:1048D000002000234FF0040B39E02A38C0B2012237
:1048E00002FA00F010EA0E0F49D110F0625C30D1EC
:1048F00010EA020343D06046013C5C44B4FBFBF485
:104900000BFB04F4002D60D0AAEB050CA444B445C5
:104910003FF67EAF00286AD1BAF1040F45D158F8AE
:10492000040B206004344FF0040A28E0019B013B93
:104930000193002323E011F8013C6C2B32D111F8D4
:10494000023C00206C2B0346C4D14FF0080BDA4622
:10495000D2E708F1070828F007080734F8E802ABA7
:1049600024F0070435B106982044B0423FF650AF1A
:10497000C4E900AB083400234FF0080BDA4611F805
:10498000010F002800F0BF80002B7FF473AF2528B3
:10499000F5D1019B0133019301234FF0040BEDE7A7
:1049A000184696E700200346A6E7BAF1080F40F044
:1049B0009C8008F1070828F00708B8EC027B84ED1A
:1049C000007B08344FF0080AD9E780B9BAF1040F28
:1049D00002D108F10408A5E7BAF1080F40F085807C
:1049E00008F1070828F0070808F10808E9E7059822
:1049F0000138059058F8040B009021E7039A9007BE
:104A00004CD5A4EB050E4FEA9E004FF0010CBEF50D
:104A1000007F1FD329492A4A2A484FF41F7319F0EF
:104A200065FC294819F062FC4FF41F71244819F005
:104A300054FC0F2F10D8002D4AD007F140020DEB87
:104A4000020C019A0CF8200C0CF8102C0498013080
:104A5000049022E00F2F0CD91849194A194840F246
:104A6000812319F043FC194819F040FC40F28121E0
:104A7000DCE7D5B107F140020DEB020EC0B2019A9E
:104A80000EF8200C0EF8102CBCF1000FDED060F0F8
:104A90007F000EF8200C09F101090137C5F1080269
:104AA000043406924FF6DA7E69E7BCF1000F0FD0AE
:104AB0000136F2E774020200945D0200F94F020031
:104AC000AA260200B01D0200D8260200F926020024
:104AD000029A0236002AE0D10098CDE90631FCF7AF
:104AE00017F8DDE906310644D7E7444A444945480A
:104AF00040F2C62319F0FAFB5146434819F0F6FB81
:104B000040F2C62192E7631BB3F5806F0CD33C499A
:104B10003A4A3C4840F2D22319F0E8FB3B4819F0EE
:104B2000E5FB40F2D22181E71DB9A6F10804E018A7
:104B300070E6029A28609B082B709DF81030C2B175
:104B4000EB7085F80290B9F1000F05D008A800229B
:104B5000C5F1010C97420ED1C5F101030DF12008FA
:104B60004FF0000A01930DF1300B574512D1601B35
:104B700050E66B70E5E710F8013B190608D504EB29
:104B80000C0EB64503F07F033FF642AE04F8013B3E
:104B90000132DFE7B9F1000F03D098F90020002AB5
:104BA00017DB029BD3B11AF80B2004F8012B00226B
:104BB000019B98182044B0423FF62AAE98F80000B6
:104BC00004F8010B0099039220461AF0E4FE039AC0
:104BD00014440AF1010A08F10108C6E798F8002018
:104BE00055F822300093029B45F822300098FBF7DD
:104BF0008FFF421CDCE76FF00D000BE6AA260200D7
:104C0000F94F0200B01D02001327020028270200FE
:104C10002DE9F04F97B000AF8946D7F880B0FA621F
:104C20003B62044658B9A849A84AA9484FF466739C
:104C300019F05CFB4FF46671A44819F04EFBCBF3FE
:104C4000C00390F802A0BB6141B9457800780AEB37
:104C5000800020444D4517D8A0EB0409E378FB61A0
:104C6000BAF1000F02D01BF0010F16D1FB6953BB44
:104C7000FB6A1BB13A6A4946204698474D4628468A
:104C80005C37BD46BDE8F08F461C3046FBF740FF61
:104C90000130304409F10109DCE7237862687A6267
:104CA000FA6A9900796104EB8301002A40F00181DE
:104CB0004D460E4601EB0A094FF000084E454CD117
:104CC00001EB0A0610E01BF0020FD1D023789A0006
:104CD0007A6162687A62FA6A04EB8301002A77D10A
:104CE0004D4601EB0A0690461BF0050F0CBF022350
:104CF0000123FB62FB6906EB430A0BF00203BB6274
:104D00005645BCD016F8021B16F8013C54F8239007
:104D1000704B994502D3704B994536D3BB69002B34
:104D200040D0786A19F034FA00283BD0E9468AB0BE
:104D30006A466A4B53617B6AC2E906314FF40073DD
:104D40001384674B42F8103F664800234FF412511A
:104D500001F0E4FB023DCD46D2E716F8013BF962D3
:104D600054F82300FBF7D4FED7F88430F96A0130F9
:104D70004BB1D7F8883098453EBFD7F8843023F838
:104D8000180008F10108054498E7BB6923B1786A67
:104D900019F0FEF90028C9D11BF0010F05D1FB6AFB
:104DA000ED1AADE7BB6A002BAAD04846FBF7B0FE70
:104DB000D7F8843053B1D7F8883098453FBFD7F83B
:104DC0008420431C22F8183008F10108054497E7B5
:104DD000BAF1000F73D01BF0040673D0D046002642
:104DE00007F1480052463B61B9621AF0D4FDB96A36
:104DF0003B6901EB0A02BA62FA69F9695200FA608A
:104E0000BA6A02EB41023A610BF00202BA60BA6A76
:104E100039698A4268D162787A621BF0020F3244A3
:104E20000CBF4FEA580100211BF0010FD2B240F035
:104E3000E4801BF0040F14BF40460020BB61627089
:104E4000A070E1703A6A7969FB6A20469847051EAE
:104E5000FFF615AFBB6923707B6A6370FB69E37073
:104E600041463A6AFB6A84F802A007F14800984775
:104E7000B0F10008C0F2EF807B693A6AA9EB0A0141
:104E8000C91AFB68C91AD7E90A0398470028C0F273
:104E9000E480A84408EB00054FF0000B07F1380A46
:104EA000B345C0F0AC8000213A6AFB6A08469847D7
:104EB000E5E656464FF0000807F1380092E75646FF
:104EC000D04696E7B04694E73F270200AA260200A4
:104ED000B01D020074020200945D02005A27020015
:104EE00004000001D4050200BA6A12F8021BBA627B
:104EF00012F8015C5A4A54F82500904202D3594AEC
:104F0000904218D3BA693AB1786A7B6019F040F9D7
:104F10007B6800287FF47BAFBA68002A4CD00F2E44
:104F200040D95149514A524840F24C4319F0DEF9F8
:104F300040F24C4180E6BA693AB1786A7B6019F078
:104F400027F97B6800287FF462AF1BF0010F0BD0BC
:104F50000F2E27D94449454A454840F2424319F0AB
:104F6000C5F940F2424167E61BF0040F3FF44FAF32
:104F7000B8F10F0F09D93F493C4A3D4840F245433B
:104F800019F0B4F940F2454156E608F1280207F15C
:104F9000300008F1010102EB000808F8105C5FFA2C
:104FA00081F834E706F1280207F13000711C161869
:104FB00006F8205CCEB22AE7B8F10F0F09D92D49C7
:104FC0002A4A2B4840F24F4319F090F940F24F41E2
:104FD00032E608F1280207F1300C08F10100944490
:104FE00007F1580252FA80F008F102080CF8101C80
:104FF0005FFA88F800F8105C09E700201EE71BF84C
:105000000A3087F8373054F82390D7F88430FBB152
:1050100033F81B803A6AFB6A012107F13700984791
:1050200000281ADB0544B8F1000F06D14846FBF70B
:105030006FFD00F101081FFA88F83A6AFB6A4146E1
:1050400048469847002808DB05440BF1010B27E789
:10505000D7F88480DEE7454611E605460FE600BF37
:1050600074020200945D0200FD270200AA260200DD
:10507000B01D02001C280200014B1860704700BFE1
:105080003806002030B587B00025CDE9030104467D
:10509000009503A905480595FBF792FEDDE904306C
:1050A0009842B8BF255407B030BD00BFDFE1010012
:1050B000F0B5094E016802460A2700200B4601316F
:1050C0001C78355D6D0701D41360F0BD07FB00430C
:1050D000A3F13000F2E700BF245B02002DE9F84F96
:1050E00015469A46D378234A12F803B06F2B8146AF
:1050F0000F460BF0030B2BD026D8582B0CBF1026D5
:105100000A26DDF828803246002348463946FBF758
:10511000DBFC092A08F1FF38D4B21ED83034B1457F
:10512000E4B277F1000788F8004001D3D04511D8E8
:105130002B789B0605D5082E15D1AB7843F00803D4
:10514000AB704046BDE8F88F03F0F703702BD5E74E
:105150000826D6E781460F46D5E7BBF1010F0CBF05
:1051600037345734DBE7102EEBD1AB7843F0100324
:10517000E6E700BF245B020038B50D460446202256
:1051800000211AF016FCEB68E361AB68A3612B68A1
:1051900023626B6863620022A2622A6923B1591EEE
:1051A000194208BF42F0010222610122002104F1EC
:1051B0002C001AF091FA48B105490648064A2F23F7
:1051C00019F094F804482F2119F087F838BD00BF72
:1051D000001F0200B01D0200532802002DE9F04F0D
:1051E00089B0CDE90123436A00278B4204468846F3
:1051F00005970797BA4655D300F114064FF0200BD8
:10520000EFF3118300938BF31288BFF36F8F304657
:10521000DDF8009016F07CFC58B94B4A4B494C48DD
:10522000882319F063F831464A4819F05FF888215D
:1052300060E0304616F090FC079A2AB139462046C5
:1052400019F033F90023079306A9204619F05BF8FB
:105250000699414505462ED32268236A13F8221089
:1052600021F0030103F8221003EB820A2168424671
:10527000204619F06CF8E3682060984216D00025AB
:10528000304616F053FC40B389F31188BFF36F8F9B
:10529000059929B1A2690AB12046904700230593D8
:1052A000002DADD1504609B0BDE8F08F236943F021
:1052B00008032361E3E718B1204619F062F8DFE73D
:1052C000DDE90132134337D003911AF038FA03991C
:1052D00090BB304616F02AFC78B91B4A1E491C4880
:1052E00040F2311319F002F831461C4818F0FEFF65
:1052F00040F23111144818F0F0FF009B83F311883D
:10530000BFF36F8FDDE9012304F12C0014F0C0FD21
:105310000546EFF311898BF31288BFF36F8F304688
:1053200016F0F6FB00283FF478AF3046B5FA85F565
:1053300016F012FC6D09A3E707AB05AA2046276803
:1053400019F03CF805469BE779280200A6280200E0
:10535000B01D0200BB280200D1280200E82802008C
:105360002DE9F0410446C36908460E46984704F10A
:1053700014050746EFF31188202383F31288BFF347
:105380006F8F284616F0C4FB68B91B4A1B491C489E
:10539000882318F0ABFF29461A4818F0A7FF882188
:1053A000154818F09AFF284616F0D6FB337843F0DC
:1053B0000103337061683A46204618F0C8FF606008
:1053C000204619F08DF8284616F0B0FB68B90A4A55
:1053D0000D490B4840F2311318F088FF29460B485D
:1053E00018F084FF40F23111DAE788F31188BFF337
:1053F0006F8FBDE8F08100BF79280200A628020067
:10540000B01D0200BB280200D1280200E8280200DB
:105410002DE9F843044600F11407EFF31188202327
:1054200083F31288BFF36F8F384616F071FB054681
:1054300068B9354A35493648882318F057FF394648
:10544000344818F053FF88212F4818F046FF38469B
:1054500016F082FB2369A26813F0080F02D163687B
:105460009A4200D9636A9B1A002B3FD0216A11F837
:10547000223013F0030001EB82093AD0022803D155
:1054800051F82260B60805D1D8071FD4E369484611
:1054900098470646A1683246204618F058FF314624
:1054A000A060204618F061FF384616F03FFB10BBA5
:1054B000154A1949164840F2311318F017FF3946BA
:1054C000164818F013FF40F23111BDE743F0020314
:1054D00001F822304846E369A56898472946024604
:1054E000204618F034FF0025A060DDE71D46A946E0
:1054F000DAE70546FBE788F31188BFF36F8F002DCD
:105500008BD14846BDE8F88379280200A62802001E
:10551000B01D0200BB280200D1280200E8280200CA
:105520002DE9F0410446C36908460D46984704F149
:1055300014060746EFF31188202383F31288BFF384
:105540006F8F304616F0E4FA68B9284A284929488E
:10555000882318F0CBFE3146274818F0C7FE882173
:10556000224818F0BAFE304616F0F6FA2B786FF3A0
:1055700000032B7023699B0705D5E268236A03EBC0
:1055800082039D4222D12B786FF341032B70D4E923
:105590000231994204D13A46204618F0D8FEA06064
:1055A0003946204618F0E1FE304616F0BFFA90B9B1
:1055B0000E4A12490F4840F2311318F097FE314657
:1055C0000F4818F093FE40F23111C9E72B6867F3DA
:1055D0009F032B60E8E788F31188BFF36F8F04F116
:1055E0002C00BDE8F04114F00FBC00BF7928020088
:1055F000A6280200B01D0200BB280200D12802002C
:10560000E828020070B5044600F11405EFF3118696
:10561000202383F31288BFF36F8F284616F078FAA1
:1056200068B91B4A1B491C48882318F05FFE2946AD
:105630001A4818F05BFE8821154818F04EFE2846DF
:1056400016F08AFA2369A06813F0080F02D1636884
:10565000984213D9646A241A284616F067FA78B972
:105660000B4A0F490C4840F2311318F03FFE29460F
:105670000C4818F03BFE40F23111DDE71C1AEBE755
:1056800086F31188BFF36F8F201E18BF012070BDF5
:1056900079280200A6280200B01D0200BB280200E3
:1056A000D1280200E828020008B50446EFF3118370
:1056B000202383F31288BFF36F8F11F08FFF2046F2
:1056C00001F068FF024818F09EFD19F029F9FCE787
:1056D000FD2802002DE9F84F04460846A38B190760
:1056E000154612D4022803F0070165D1204618F0B0
:1056F0001FFF88B10138042800F23781DFE810F07D
:105700005C0035018200D400040101280CBF43F085
:10571000100143F02001A1831434204616F006FA4C
:10572000002840F09D819A499A4A9B4840F23113E3
:1057300018F0DCFD2146B1E003F00702501F0128FC
:105740001ED80020062A2768C4E9000014D13A4672
:1057500003E0E08B0130E0831268002AF9D123F0E6
:10576000070343F00202A283204618F0E1FE90B343
:1057700042F02002A2832EE023F007039AB2F2E760
:10578000042A33D123F007039AB2A283204618F0EB
:10579000CFFE10B142F02002A283A38B03F00709D1
:1057A000894540F0EC80A18BCA0640F1508121F080
:1057B0001003A38301F00701D4F81880A38BB8F17C
:1057C000000FB9DA0022276823F00703C4E900229A
:1057D00043F00103A383A38B03F00709894540F03D
:1057E000CF80002FDFD00026B24644E06B496C4AE0
:1057F000694840F21B1318F079FD40F21B1168480C
:1058000018F06BFD49B16749654A63484FF4AB73C3
:1058100018F06CFD4FF4AB71F1E723684BB96249A6
:105820005F4A5D4840F2571318F060FD40F257118F
:10583000E5E723691E684EB95C49594A56484FF45A
:10584000AD7318F053FD4FF4AD71D8E7A38B23F07F
:10585000070343F006039BB2A3830F4688464FF02D
:105860000609A268002A40F08D80002F40F08D804C
:10587000002E98D0BA4643F0080304F1140BA3831A
:10588000584616F053F9002840F09A804049414AA2
:10589000414840F2311318F029FD5946444818F0A8
:1058A00025FD40F23111ADE0022909D041493C4AC1
:1058B000394840F25D1318F019FD40F25D119EE782
:1058C000E78B4FB13C49364A33484FF4AF7318F079
:1058D0000DFD4FF4AF7192E723695E684EB933490D
:1058E0002F4A2D4840F2611318F000FD40F261117B
:1058F00085E7A38B23F0070343F004039BB2A38344
:10590000B8464FF00409ACE7012909D02B49244AD5
:1059100021484FF4B27318F0E9FC4FF4B2716EE70E
:1059200023684BB920491E4A1B4840F2651318F002
:10593000DDFC40F2651162E723699E684EB91B49A0
:10594000174A15484FF4B47318F0D0FC4FF4B471F3
:1059500055E7A38B23F0070343F005039BB2002711
:10596000A383B8464FF005097BE70C490C4A0A4867
:1059700040F26B1318F0BAFC40F26B113FE70027BE
:1059800000266EE74FF0010A75E7924673E700BF05
:10599000D128020079280200B01D0200F94F020050
:1059A000262902004B290200572902007A29020009
:1059B000E828020091290200A7290200B629020066
:1059C00085F31188BFF36F8FBAF1000F1CD177BB3D
:1059D00016B126492046B047EFF31185202383F303
:1059E0001288BFF36F8F584616F092F838BB204AE2
:1059F00020492148882318F079FC59461F4818F09F
:105A000075FC88211A48FBE6A1680029DFD00D68E3
:105A10000029DCD0D1F804A043464A462046D047AE
:105A20001DB12B6829461D46F2E72B46FAE7394699
:105A300043464A4620463F6818F0A6FDC7E7584649
:105A400016F08AF8A38B23F00803A383ABE68B063A
:105A50007FF562AE21F02003A38301F0070145E644
:105A600085F31188BFF36F8FBDE8F88F815A00006E
:105A700079280200A6280200B01D0200BB280200FF
:105A8000F8B504460D4600F11406EFF31187202304
:105A900083F31288BFF36F8F304616F039F868B978
:105AA0000C4A0D490D48882318F020FC0C4831465B
:105AB00018F01CFC0748882118F00FFC304616F03F
:105AC0004BF8A5613A4620460121BDE8F840FFF7B2
:105AD00001BE00BF79280200A6280200B01D020006
